:020000040800F2
:10000000A80700209902000879170008691700085E
:100010007117000891040008F118000800000000A2
:100020000000000000000000000000008917000828
:1000300099040008000000008117000891170008CB
:10004000B3020008B3020008B3020008B3020008BC
:10005000B3020008B3020008B3020008B3020008AC
:10006000B3020008B3020008B3020008B30200089C
:10007000B3020008B3020008B3020008B30200088C
:10008000B3020008B3020008B3020008B30200087C
:10009000B3020008B3020008B3020008B30200086C
:1000A000B3020008B3020008B3020008B30200085C
:1000B000B3020008B3020008B3020008B30200084C
:1000C000B3020008B3020008B3020008B30200083C
:1000D000B3020008B3020008B3020008B30200082C
:1000E000B3020008B3020008B3020008B30200081C
:1000F000B3020008B3020008B3020008B30200080C
:10010000B3020008B3020008B3020008B3020008FB
:10011000B3020008B3020008B3020008B3020008EB
:10012000B3020008B3020008B3020008B3020008DB
:10013000B3020008B3020008B3020008B3020008CB
:10014000B3020008B3020008B3020008B3020008BB
:10015000B3020008B3020008B3020008B3020008AB
:10016000B3020008B3020008B3020008B30200089B
:10017000B3020008B3020008B30200080000000048
:10018000B3020008B3020008B3020008B30200087B
:10019000B3020008B3020008B3020008B30200086B
:1001A000B3020008B3020008B3020008B30200085B
:1001B000B3020008B3020008B3020008B30200084B
:1001C000B3020008B302000800000000B3020008F8
:1001D000B3020008B3020008B3020008B30200082B
:1001E000B3020008B3020008B3020008B30200081B
:1001F000B3020008B302000800F002F800F03CF877
:100200000AA090E8000C82448344AAF10107DA4571
:1002100001D100F031F8AFF2090EBAE80F0013F087
:10022000010F18BFFB1A43F001031847581E0000C6
:10023000781E0000103A24BF78C878C1FAD8520757
:1002400024BF30C830C144BF04680C607047000050
:100250000023002400250026103A28BF78C1FBD8CF
:10026000520728BF30C148BF0B6070471FB501F06F
:10027000F3FE1FBD10B510BD00F0D0F81146FFF71A
:10028000F5FF01F039FB00F0EEF803B4FFF7F2FFE1
:1002900003BC00F0F5F80000094880470948004712
:1002A000FEE7FEE7FEE7FEE7FEE7FEE7FEE7FEE726
:1002B000FEE7FEE704480549054A064B7047000083
:1002C00099170008F9010008A8010020A8070020DC
:1002D000A8030020A803002053EA020C00F0698064
:1002E0002DE9F04B4FF00006002B1FBFB3FA83F54A
:1002F00003FA05F424FA05F65E4012BF1643B2FA7B
:1003000082F502FA05F4C5F120051EBF22FA05FCAC
:1003100044EA0C04203556EA044C4FEA144418BF52
:10032000641C4FF000084FF00009904271EB030C81
:1003300039D3002919BFB1FA81F701FA07F6B0FAEB
:1003400080F700FA07F6C7F120071EBF20FA07FC66
:1003500046EA0C062037B6FBF4FCA7EB0507103F76
:1003600007F01F0BCBF120062CFA06F60CFA0BFB5C
:1003700044BFB3460026202FA4BF5E464FF0000BBB
:100380005BEA060C08BF4FF0010B19EB0B0948EBB9
:100390000608ABFB027C06FB02CC0BFB03CCC01BAC
:1003A00071EB0C01C1E70B46024641464846BDE8E9
:1003B000F08B13B5084318BF4FF0FF300146AFF381
:1003C0000080BDE81C4070474FF0000200B51346A6
:1003D00094469646203922BFA0E80C50A0E80C5065
:1003E000B1F12001BFF4F7AF090728BFA0E80C5016
:1003F00048BF0CC05DF804EB890028BF40F8042B0F
:1004000008BF704748BF20F8022B11F0804F18BF7B
:1004100000F8012B7047704770477047754600F031
:100420002BF8AE4605006946534620F00700854686
:1004300018B020B5FFF73EFFBDE820404FF00006A2
:100440004FF000074FF000084FF0000BAC46ACE84F
:10045000C009ACE8C009ACE8C009ACE8C00921F0AB
:1004600007018D46704710B50446AFF30080204663
:10047000BDE81040FFF709BF00487047100000209A
:1004800001491820ABBEFEE72600020070470000BD
:10049000FEE70000000000007047000000000000C0
:1004A0002DE9F04F82B000F13E420A2302F1FF77BE
:1004B00042F20042C4F2020243F6004E90424FEA7A
:1004C000B72208BF0923092AC4F2010E38BF4FEA38
:1004D000B72300244FF0010A00270026009306E00E
:1004E00002370136202F04F1040400F0B5800AFA27
:1004F00006F80B6813EA080FF2D0D1F8049009F05F
:10050000030AAAF10103012B16D80322836802FA19
:1005100007F5CA68AB43BA401A438260C9F30013B7
:1005200042684FEA460C6FEA050B22EA0802B34024
:100530001A4342600EE000BF0322BAF1030F02FA31
:1005400007F2BC466FEA020B04D1BC464FF0030A27
:1005500023E000BFC2688B6802EA0B0203FA0CF3C7
:10056000BAF1020F42EA0302C26016D16FF0030231
:1005700004F01C0502EA56020F23024403FA05FAAE
:10058000D2F820900B6929EA0A09AB4043EA090333
:100590001362D1F8049009F0030A02680AFA0CF316
:1005A00002EA0B0219F4403F4FF0010A42EA03024B
:1005B000026095D043F644034FF60849C4F20203A3
:1005C000CFF6FF790F251A6842F480421A601A6844
:1005D00026F0030302F4804201920EEB0302019B1A
:1005E00004F00C0352F809C09D402CEA050C009D54
:1005F00005FA03F343EA0C0342F80930DEF808C0B9
:100600004B684CEA0805DA0258BF2CEA080543F6A5
:100610000C499A02C4F20109CEF80850D9F800C07A
:100620004CEA080558BF2CEA08059A03C9F800509F
:10063000DEF804C04CEA080558BF2CEA0805DB03C5
:10064000CEF80450DEF8002042EA080558BF22EA3E
:100650000805CEF8005043E702B0BDE8F08F000077
:100660000069084018BF012070470000000000002A
:10067000002A08BF090481617047000000000000E3
:1006800040F2A410C2F200000068704700000000B1
:1006900040F2000040F2A411C2F20000C2F20001D8
:1006A00000780A68104408607047000000000000ED
:1006B00080B5032000F078F8002000F005F800F085
:1006C00027F8002080BD000070B540F2000640F21F
:1006D0000801C2F20006C2F200014FF47A73044628
:1006E00032780968B3FBF2F2B1FBF2F1084600F090
:1006F00027FB0F2C4FF0010508D838B94FF0FF3019
:1007000000222146002500F01FF87460284670BDC5
:1007100082B043F64000C4F20200016841F080510B
:100720000160016801F0805101910199416841F433
:1007300080414160406800F480400090009802B021
:100740007047000000000000B0B54EF60C5C00F0F1
:100750000F05CEF2000C043D6544DCF800304FF08C
:10076000FF3CC3F3022E8EF00703042B28BF0423A3
:10077000BEF1030438BF00240CFA03F3B0F1FF3FCD
:1007800021EA030105F10C0300F160450CFA04F0C5
:10079000C8BF05F56443A14022EA000008430001F8
:1007A0001870B0BD000000004EF60C514FF6FF036C
:1007B000CEF200010A681A4060F30A2242F080601B
:1007C00040F0FD70086070472DE9F041002800F00E
:1007D000898043F608080446C4F202080D46D8F89A
:1007E000F80300F00F0088420CD2D8F8F80320F08C
:1007F0000F002843C8F8F803D8F8F80300F00F00FA
:10080000A8426FD12068810717D5410705D5D8F8D0
:10081000001041F4E051C8F80010010705D5D8F8E0
:10082000001041F46041C8F80010D8F80010A26828
:1008300021F0F0011143C8F80010C0073AD1D8F8F0
:10084000F80300F00F00A8420CD9D8F8F80320F004
:100850000F002843C8F8F803D8F8F80300F00F0099
:10086000A8423FD12068410707D5D8F80010E268B8
:1008700021F4E0511143C8F80010000708D5D8F85A
:100880000000216920F4604040EAC100C8F800007F
:10089000D8F8000000F00C0142F200400829C0F234
:1008A000F4003FD004295FD141F20020C0F27A0069
:1008B0005AE000BF6068022808D001280ED158F81D
:1008C000081C890312D40120BDE8F08158F8081CE7
:1008D00089010BD40120BDE8F08100BF58F8081C45
:1008E000890703D40120BDE8F08100BFD8F80010CB
:1008F00021F003010843C8F80000FFF7C1FE0646D7
:1009000041F28837D8F80000616800F00C00B0EBC5
:10091000810F94D0FFF7B4FE801BB842F2D90320B8
:10092000BDE8F08158F8041C58F8043C58F8047CE1
:1009300001F03F025902C7F3881105D4A1FB000161
:100940000023FFF7C9FC06E041F20020C0F27A0064
:100950004843B0FBF2F058F8041C0222C1F30141F5
:1009600002EB4101B0FBF1F0D8F8001042F2720244
:10097000C0F60002C1F30311515C40F20402C2F25E
:100980000002C84040F20801C2F20001086010688D
:10099000FFF79AFE0020BDE8F08100000000000093
:1009A0002DE9F04182B0002870D00446007843F66B
:1009B0000006C007C4F202060BD0B06800F00C00BD
:1009C000042840F0A1803068800302D560680028C8
:1009D0005CD0207880071AD5B06810F00C0F09D0D1
:1009E000B06800F00C00082840F0AC80706840024D
:1009F00000F1A8803068800702D5E068012845D161
:100A00003068216920F0F80040EAC10030602078A9
:100A100000073FD42078400750D4A5698DB3B06853
:100A200000F00C00082840F0C180012D70682DD026
:100A300000F48001E269914228D100F03F01226A6E
:100A4000914223D147F6C071626A0140B1EB821F27
:100A50001CD1A16A0022CFF6FF7200F4403302EBF2
:100A6000C1316FF30F018B4210D1E16A00F0706267
:100A7000B2EB016F0AD1216B00F0E040B0EB017FD7
:100A800004D1002002B0BDE8F08100BF012002B017
:100A9000BDE8F08160690028706F77D040F00100F8
:100AA0007067FFF7EDFD0546706F8007B2D4FFF762
:100AB000E7FD401B0228F7D915E100BF306C10F0AC
:100AC000805808D1306C40F080503064306C00F0B9
:100AD00080500190019847F20007C4F2000738687F
:100AE000C00543D4386840F480703860FFF7C8FD13
:100AF000054600BF3868C00538D4FFF7C1FD401B6C
:100B00006428F7D9EFE000BFB06800F00C000828B7
:100B100003D1706840023FF556AF6068002800F0CE
:100B2000B580B0F5A02F00F0C980B0F5803F00F08F
:100B3000C980306820F480303060306820F4802034
:100B4000C3E000BFE0680028306851D040F00100E9
:100B50003060FFF795FD0546306880073FF550AFE0
:100B6000FFF78EFD401B0228F6D9BCE0A0680028E4
:100B700050D0052868D001286AD0306F20F00100DD
:100B80003067306F20F0040065E000BF20F0010006
:100B90007067FFF775FD0546706F80077FF53AAF08
:100BA000FFF76EFD401B0228F6D99CE0306820F06C
:100BB00080703060FFF764FD022D05460CD100BF48
:100BC0003068800140F19480FFF75AFD401B0228F5
:100BD0004FF00300F4D955E7306880017FF551AF3D
:100BE000FFF74EFD401B02284FF00300F4D949E700
:100BF00020F001003060FFF743FD054630688007B4
:100C00007FF505AFFFF73CFD401B02284FF00300C6
:100C1000F4D937E7306F20F001003067306F20F0F3
:100C200004003067FFF72CFD054641F2883700BF0E
:100C3000306F800720D5FFF723FD401BB8424FF0EF
:100C40000300F5D91EE700BF306F40F004003067A5
:100C5000306F40F001003067FFF712FD054641F2AA
:100C6000883700BF306F800706D4FFF709FD401BAF
:100C7000B842F7D937E000BFB8F1000F7FF4CDAE2E
:100C8000306C20F080503064C7E600BF306820F43C
:100C900080303060306820F480203060FFF7F0FC56
:100CA000054600BF306880037FF593AEFFF7E8FC90
:100CB000401B64284FF00300F4D9E3E6306840F4A9
:100CC00080203060306840F480303060FFF7D8FC1E
:100CD000054600BF306880033FF57BAEFFF7D0FCD0
:100CE000401B6428F6D9032002B0BDE8F08100BFA4
:100CF00004F11C030FCB0843002140EA8210CFF619
:100D0000FF71E26A01EBC3316FF30F01236B40EA1D
:100D10000260084340EA03707060306840F0807001
:100D20003060FFF7ADFC0446306880013FF5A9AEA6
:100D3000FFF7A6FC001B02284FF00300F4D9A1E640
:100D4000411E0020B0EB116F02D00120704700BFA0
:100D50004EF21002F023CEF2000251604EF6235103
:100D6000CEF200010B700721906011607047000007
:100D7000B0B590F83C20012A02D10220B0BD00BFDE
:100D8000CB6848F2FF7ED1E901C223F47C5322F400
:100D90007052CFF6F07E1A430CEA0E03D1F800C071
:100DA00042EA030E2CF477230A6943EA0E0322F485
:100DB0007622D0F800E01A434B691A438B6A22F47A
:100DC000742C23F470238A6940F200454EF4806449
:100DD000C4F2010543EA0C03AC4243EA02430FD1DB
:100DE000002523F07C724B6ACFF6F045CC6905EA0A
:100DF00003531A4324F00073096A1A4342EA0103B9
:100E00000021CEF8443080F83C100846B0BD000008
:100E1000B0B590F83C20012A4FF002025BD080F878
:100E20003D2040F2004C0268C4F2010C42F48063A1
:100E300063455368D2F808E002BF23F470034C689E
:100E4000234341F2FF740D68C4F2000423F07003E1
:100E5000A24243EA050353600CDC40F2FF73C4F284
:100E600000039A4216DCB2F1804F29D040F20043D1
:100E700018E000BF40F2FF33C4F201039A4217DCCE
:100E800041F60003C4F200039A4219D00023C4F2D1
:100E9000010309E040F60003C4F200039A420FD0B8
:100EA00040F60043C4F200039A4209D00DE000BFAF
:100EB00044F20003C4F201039A4201D0624504D116
:100EC0002EF080038968194391600022012180F887
:100ED0003D1080F83C201046B0BD0000000000002E
:100EE00060B310B5044690F83D0028B9002084F89E
:100EF0003C00204600F024F8022084F83D002068E1
:100F0000211D00F055FC012084F8480084F83E00C3
:100F100084F83F0084F8400084F8410084F84200DF
:100F200084F8430084F8440084F8450084F84600BF
:100F300084F8470084F83D00002010BD0120704770
:100F400082B00068B0F1804F14D00021C4F20101DA
:100F500088421CD143F64000C4F20200416841F0CF
:100F600001014160406800F001000190019802B069
:100F7000704700BF43F64000C4F20200016841F030
:100F800001010160006800F001000090009802B0CB
:100F9000704700000000000080B590F83C20012A56
:100FA0004FF0020269D080F83D208822D0F800C0BE
:100FB000CFF6FE72DCF808301A40CCF808200B6837
:100FC0004F2B29DC1F2B45DD202B18BF302B44D0A5
:100FD000402B40F0AD80D1F804E0C968DCF8203047
:100FE000DCF8202022F00102CCF82020DCF81820C8
:100FF00022F0F00242EA011123F00A02CCF81810A4
:1010000042EA0E01CCF82010DCF8081041F047014C
:1010100021F0300128E000BF6F2B31DDB3F5005F18
:1010200052D0B3F5805F21D0702B40F08180D1E9A0
:1010300001E3C968DCF8082043EA0E0322F47F428A
:1010400043EA01211143CCF80810DCF8081041F004
:10105000770109E00BB1102B6AD1DCF8081021F000
:101060007001194341F00701CCF80810002201215A
:1010700080F83D10002180F83C10104680BD00BF74
:10108000502B35D0602B53D1D1F804E0C968DCF87F
:10109000203023F01003CCF82030DCF81830DCF8D6
:1010A000202023F4704322F0A00243EA0131CCF85F
:1010B000181042EA0E11CCF82010DCF8081041F0AC
:1010C000670121F01001CFE7D1E901E3C968DCF83D
:1010D000082043EA0E0322F47F4243EA0121114330
:1010E000CCF80810DCF8081041F48041BCE700BFE0
:1010F000D1F804E0C968DCF82030DCF8202022F0C8
:101100000102CCF82020DCF8182022F0F00242EA9C
:10111000011123F00A02CCF8181042EA0E01CCF8B3
:101120002010DCF8081041F0570121F020019BE766
:1011300001229CE70000000080B586B040F200422A
:101140000068C4F20002002190420591CDE903112C
:10115000CDE9011122D040F60001C4F2000188421D
:1011600030D00021C4F2010188424AD143F6300058
:10117000C4F20200016841F0100101600068012121
:1011800000F01000009000984FF4085001900020EB
:10119000C4F2020000F580502AE000BF43F63000A0
:1011A000C4F20200016841F00101016000680221FF
:1011B00000F0010000900098402001900020C4F24F
:1011C000020015E043F63000C4F20200016841F06D
:1011D000080101600068022100F0080000900098FA
:1011E0004FF4004001900020C4F2020000F540607E
:1011F000059101A9022202920022CDE90322FFF704
:101200004FF906B080BD00002DE9F04190F83C3068
:10121000012B03D10220BDE8F08100BF4FEAB202EA
:10122000052A00F23F81DFE812F0070047008B003B
:10123000D1000701450100BF036840F2004643F4B6
:101240008065C4F201061A6AB54222F001021A62F0
:101250001A461C6AD3F804E024F0020452F818CFAE
:101260008F6844EA070401BFCF6824F00C0427F01C
:1012700004073C43B5420D6801BF2EF4407ED1E91E
:10128000056746EA0E0646EA070E4FF68C76CFF65D
:10129000FE76C3F804E00CEA06072F439F614F680F
:1012A00009695F631C629F6947F008079F619F6936
:1012B00027F004079F6134E1036840F2004643F4DD
:1012C0008065C4F201061A6AB54222F010021A6261
:1012D0001A461C6AD3F804C024F0200452F818EF10
:1012E0008F6844EA071407D1CF686FF0400824F0F4
:1012F000C00408EA07173C43B5420D6808D14E699F
:101300002CF44067D1F818C047EA860646EA8C0CF0
:1013100048F6FF46C3F804C0CFF6FF660EEA06079C
:1013200047EA05279F614F6809699F631C629F69AF
:1013300047F400679F619F6927F480679F61EFE032
:10134000036840F2004643F48065C4F201061A6A5D
:10135000B54222F480721A621A461C6AD3F804C09D
:1013600024F4007452F81CEF8F6844EA072408D173
:10137000CF6840F2FF483F0224F4406427EA0807A0
:101380003C43B542D1F8008007D14E692CF4405758
:101390008D6947EA061747EA051C4FF68C75C3F8B6
:1013A00004C0CFF6FE750EEA050747EA0807DF61BD
:1013B0004F680969DF631C62DF6947F00807DF6176
:1013C000DF6927F00407DF61ABE000BF036840F28C
:1013D000004543F48067C4F201051A6AAF4222F463
:1013E00080521A621A46D3F820C05C6852F81C6F0B
:1013F0000D68D1F808E002BF4F6924F4804444EA44
:10140000871448F6FF47CFF6FF675C603E402CF438
:10141000005746EA0524DC614E6809691E6447EA04
:101420000E371F62DF6947F40067DF61DF6927F469
:101430008067DF6174E000BF036840F2004543F459
:101440008067C4F201051A6AAF4222F480321A6240
:101450001A46D3F820C05C6852F8546F0D68D1F872
:1014600008E002BF4F6924F4803444EA07244FF6B1
:101470008C77CFF6FE775C6003373E402CF4003764
:1014800046EA05045C654E6809699E6547EA0E47B1
:101490001F625F6D47F008075F655F6D27F0040707
:1014A0005F653EE00121002280F83C200846BDE84F
:1014B000F08100BF036840F2004543F48067C4F246
:1014C00001051A6AAF4222F480121A621A46D3F852
:1014D00020C05C6852F8546F0D68D1F808E002BF74
:1014E0004F6924F4802444EA872448F6FF47CFF666
:1014F000FF675C6007F540773E402CF4001746EA32
:1015000005245C654E680969DE6547EA0E571F626F
:101510005F6D47F400675F655F6D27F480675F6507
:1015200009021368194311600021002280F83C2051
:101530000846BDE8F081000060B310B5044690F89D
:101540003D0028B9002084F83C00204600F024F833
:10155000022084F83D002068211D00F029F90120B7
:1015600084F8480084F83E0084F83F0084F8400086
:1015700084F8410084F8420084F8430084F8440071
:1015800084F8450084F8460084F8470084F83D005C
:10159000002010BD0120704782B040F600010068B5
:1015A000C4F20001884215D040F20041C4F20001AB
:1015B00088421CD143F64000C4F20200016841F0A9
:1015C00002010160006800F002000190019802B081
:1015D000704700BF43F64000C4F20200016841F0CA
:1015E00004010160006800F004000090009802B05F
:1015F000704700000000000071B10A1F4FEAB202FC
:10160000032A2FD8DFE802F00210182800F13F0368
:101610001B78012B0DD114E090F83E20012A08D14F
:10162000022280F83E2032E000F140031B78012BBB
:1016300007D00120704700BF00F141031B78012B48
:10164000F7D1032A14D8DFE802F003171B1F00BFED
:10165000022280F83F201AE000F142031B78012BA0
:10166000E7D1EEE700F143031B78012BE9D0E0E777
:10167000022280F843200AE0022280F8402006E09F
:10168000022280F8412002E0022280F84220026813
:1016900001F01F00012101FA00F0116A814311627B
:1016A00041F2FF71C4F200018A42116A40EA01006E
:1016B00010620FDC40F2FF70C4F2000082421BDCBB
:1016C000B2F1804F3ED040F20040C4F200008242AE
:1016D00038D043E040F2FF30C4F20100824219DC0E
:1016E00041F60000C4F2000082422BD00020C4F278
:1016F000010082421AD031E040F60000C4F200003E
:1017000082421FD040F60040C4F20000824219D04D
:1017100024E000BF44F20000C4F20100824211D074
:1017200040F20040C4F20100824217D140F2004171
:1017300042F48060C4F20101536C884243F40040DB
:1017400050640BD107219068C0F2010101400020D4
:10175000062918BFB1F5803F00D17047106840F0EE
:101760000100106000207047FEE70000000000004C
:10177000FEE7000000000000FEE70000000000009F
:1017800070470000000000007047000000000000EB
:10179000FEF77EBF000000004EF68850CEF200003B
:1017A000016841F470010160704700000000000012
:1017B00010B540F6FF3E40F2004CC4F2000E036844
:1017C0007045C4F2010C27DCB0F1804F2CD040F200
:1017D0000042C4F20002904226D040F60002C4F259
:1017E0000002904220D041F6FF72C4F20002904203
:1017F00024DC704536DCB0F1804F59D040F2004215
:10180000C4F20002904253D040F60002C4F200023B
:1018100090424DD050E000BF40F60042C4F20002BA
:10182000904218BF60455BD123F070024B681343B0
:1018300041F6FF72C4F200029042DADD43F6FF7215
:10184000C4F20102904221DC42F20002C4F2000222
:1018500090422DD00022C4F20102904228D060456F
:1018600026D029E040F60042C4F2000290421FD088
:1018700041F60002C4F20002904219D041F6004243
:10188000C4F20002904213D016E000BF44F20002FE
:10189000C4F2010290420BD044F60002C4F20102ED
:1018A000904205D044F20042C4F20102904203D1BA
:1018B00023F44072CB68134323F080024B69D1F8C4
:1018C00000E01A438C68026040F48062C462C0F891
:1018D00028E0624504BF096901630121416110BD2F
:1018E0000022C4F2010290429ED07CE7000000007A
:1018F000FEE7000000000000A0B043F6300741F210
:101900000044C4F20207C4F20204FEF7D1FE05ADA2
:101910003021281DFEF758FD00261696CDE91466E5
:10192000CDE912663869012240F08050386138698B
:1019300000F080501C901C9845F60040CFF6FE70D9
:10194000215862F38F312150205800F440401C9000
:101950001C980220059010200990284608920B96AA
:10196000FFF71EF820B1EFF3108072B6FEE700BF5C
:101970000F200021CDE912064FF480501496CDE9D6
:10198000150612A8FEF720FF20B1EFF3108072B603
:10199000FEE700BF4FF000084FF22001CDE90888B4
:1019A0003868002240F004003860386800F0040015
:1019B00012901298386840F020003860386800F0C3
:1019C000200012901298386840F0010038603868A2
:1019D00000F0010012901298386840F00200386060
:1019E000386800F0020012901298386840F0100039
:1019F0003860386800F0100012901298386840F093
:101A000008003860386800F00800129012983868B2
:101A100040F040003860386800F0400012901298A2
:101A20002046FEF725FEA4F5A05B80210022584643
:101A3000FEF71EFEA4F580560121002230464FF02D
:101A40000109FEF715FE41F200404FF40061C4F2B7
:101A500002000022A0F580642046FEF709FE41F254
:101A600000404FF48041C4F202000022A0F5006A59
:101A70005046FEF7FDFD41F200404FF48041C4F2B4
:101A80000200002200F580652846FEF7F1FD4FF4C4
:101A9000005005AFCDE9050841F200403946C4F2D7
:101AA0000200CDF81C80A0F540600490FEF7F8FC21
:101AB0004FF220003946CDE9050941F20040C4F259
:101AC0000200CDE90788FEF7EBFC80203946CDE91E
:101AD00005095846CDE90788FEF7E2FC304639464D
:101AE000CDE90599CDE90788FEF7DAFC4FF40060EF
:101AF0003946CDE9050920460394CDE90788FEF76C
:101B0000CFFC504639464FF48044CDE90549CDE934
:101B10000788FEF7C5FC08203946CDE90508504680
:101B2000CDF81C80FEF7BCFC28463946CDE90549B6
:101B3000CDE90788FEF7B4FC05A82C21CDF87C8000
:101B4000CDE91D88CDF86080CDE91688CDE91488EF
:101B5000CDE91288FEF738FC40F2700741F20040F0
:101B6000C2F20007C4F20200A0F58A31384640F8FC
:101B7000041F0F21C0E901186421C0E90318C0E95E
:101B80000588FFF7ADF928B1EFF3108072B600BFFA
:101B9000FEE700BFD046B2463E1D4FF480501C9079
:101BA0001CA93046DDF810900295FFF7F5F928B131
:101BB000EFF3108072B600BFFEE700BF3046FFF7BC
:101BC000BBFC28B1EFF3108072B600BFFEE700BF88
:101BD00019A9304600251B95CDE91955FFF718F9CD
:101BE00020B1EFF3108072B6FEE700BF60201290C4
:101BF000642012A9CDE9130500223046CDE9155520
:101C0000CDE91755FFF700FB20B1EFF3108072B656
:101C1000FEE700BF12A908223046FFF7F5FA28B107
:101C2000EFF3108072B600BFFEE700BF00254FF44F
:101C30000050CDE90A054FF0007005A9CDE90D056A
:101C400030460995CDE90755CDE905550C950F9519
:101C5000FFF78EF820B1EFF3108072B6FEE700BFF9
:101C600010243046C4F20004FFF766FA40F20C106C
:101C70001395C2F2000004F57C71CDE90A55CDE957
:101C8000085501600F21C0E9011564218561C0E993
:101C90000315FFF751FC28B1EFF3108072B600BFB7
:101CA000FEE700BF40F20C1012A9C2F20000CDF80E
:101CB00004B0002512951495FFF7AAF820B1EFF3B0
:101CC000108072B6FEE700BF6020059040F20C1055
:101CD00005A9C2F2000000224FF0640B0995CDE97E
:101CE00006B5FFF791FA18B1EFF3108072B6FEE770
:101CF00040F20C10C2F20000FFF71EFA40F258103A
:101D00001021C2F20000C4F20001021D01F5FE61C3
:101D100001600F2100251395CDE90A55CDE908553D
:101D200082E8220805618561FFF706FC20B1EFF328
:101D3000108072B6FEE700BF40F2581012A9C2F23E
:101D4000000012951495FFF763F818B1EFF31080B7
:101D500072B6FEE7602005906420069040F25810AD
:101D600005A9C2F200000C22002507950995FFF78E
:101D70004BFA18B1EFF3108072B6FEE740F258103C
:101D8000C2F20000FFF7D8F940F2C0000895C2F295
:101D900000001395CDE906554FF0804101600F21F9
:101DA0008561C0E901154FF0FF31C0E90315FFF768
:101DB00097F818B1EFF3108072B6FEE74FF4805039
:101DC000059040F2C00005A9C2F20000FFF7E4F858
:101DD00020B1EFF3108072B6FEE700BF0020129032
:101DE000149040F2C000C2F2000012A9FFF710F8F0
:101DF00020B1EFF3108072B6FEE700BF002130463D
:101E0000FFF7FAFB08213046FFF7F6FB40F20C1013
:101E10000021C2F20000FFF7EFFB40F258100C2146
:101E2000C2F20000FFF7E8FBB7EE009A41F200446F
:101E30009FED858B9FED86ABC4F2020463E000BF8B
:101E400000EE106A00222E464F2501215046B8EEC2
:101E5000400AB7EEC00A20EE080B20EE0A0BB7EEE0
:101E6000C00B87ED000AB4EE490AF1EE10FABCBFD0
:101E700001220025FEF7FCFB786841F20044C4F221
:101E800002044FF04F0BC0F834B04FF480410022F1
:101E90002046FEF7EDFB4FF4006101220398FEF7A8
:101EA000E7FB78684FF480410022C5630298FEF793
:101EB000DFFB4FF4004101222046FEF7D9FB40F240
:101EC0000C104FF48041C2F2000000220068C0F8FC
:101ED00034B03046FEF7CCFB802101220198FEF79A
:101EE000C7FB40F258104FF40051C2F2000000222C
:101EF000006805642046FEF7BBFB4FF480510122C9
:101F00002046FEF7B5FB4FF400514846FEF7A8FB0C
:101F1000202100222046FEF7ABFB10210220C4F254
:101F200000014FF08042C86101204860086820F03D
:101F300001000860106840F0010010600868C007E8
:101F400009D10868C00704BF08685FEAC07002D101
:101F50000868C007F2D00868012220F0010008607C
:101F600020212046FEF784FB10210920C4F2000145
:101F70004FF08042C86101204860086820F00100ED
:101F80000860106840F0010010600868C00709D1BF
:101F90000868C00704BF08685FEAC07002D108681B
:101FA000C007F2D00868002220F00100086020215C
:101FB0002046FEF75DFB454608212846FEF750FB0C
:101FC0000028F9D008212846FEF74AFB0026012800
:101FD0007FF436AF40F2100BC4F2000B0EE000BFEE
:101FE000DBF80000082120F00100CBF800002846B3
:101FF0000136FEF735FB01287FF422AF0120CBF834
:102000001C00CBF804004FF08041DBF8000020F00A
:102010000100CBF80000086840F001000860DBF820
:102020000000C007DCD1DBF80000C00704BFDBF80C
:1020300000005FEAC070D3D1DBF80000C007EED02B
:10204000CEE700BF00BF00BF6666666666660640F4
:1020500000000000C58F913FF1EE100A4FF6FF71AE
:10206000C0F2C03120EA010040F04070E1EE100AF9
:102070007047000000000000000001020304060792
:1020800008090000A820000800000020100000003F
:1020900034020008B8200008100000209807000053
:1020A00050020008000000000100000010000000C5
:0820B0000024F4000000000010
:04000005080001F9F5
:00000001FF
